:020000040000FA
:10000000D86F0020F54000005B98000025410000FB
:1000100025410000254100002541000000000000AE
:100020000000000000000000000000000D3F000084
:100030002541000000000000C53E00009D93000027
:10004000CD400000CD400000CD400000CD4000007C
:10005000CD400000CD400000CD400000CD4000006C
:10006000CD400000CD400000CD400000CD4000005C
:10007000CD400000CD400000CD400000CD4000004C
:10008000CD400000CD400000CD400000CD4000003C
:10009000CD400000CD400000CD400000CD4000002C
:1000A000CD400000CD400000CD400000CD4000001C
:1000B000CD400000CD400000CD400000CD4000000C
:1000C000CD400000CD400000CD400000CD400000FC
:1000D000CD400000CD400000CD400000CD400000EC
:1000E000CD400000CD400000CD400000CD400000DC
:1000F000CD400000CD400000CD400000CD400000CC
:100100007BB972B90029BEBF00204FF0004106E064
:1001100008BF00281CBF6FF000414FF0FF3000F017
:10012000B9B9ADF1080C6DE904CE002909DB002B4B
:100130001ADB00F04DF8DDF804E0DDE9022304B03D
:100140007047404261EB4101002B1BDB00F040F89F
:10015000DDF804E0DDE9022304B0404261EB410137
:10016000524263EB43037047524263EB430300F098
:100170002FF8DDF804E0DDE9022304B0404261EB32
:1001800041017047524263EB430300F021F8DDF870
:1001900004E0DDE9022304B0524263EB43037047FD
:1001A00053B94AB9002908BF00281CBF4FF0FF31DE
:1001B0004FF0FF3000F06EB9ADF1080C6DE904CEE0
:1001C00000F006F8DDF804E0DDE9022304B0704732
:1001D0002DE9F047089D0E4604468C46002B40F062
:1001E00081808A42174645D9B2FA82F24AB1C2F1F9
:1001F000200106FA02F320FA01F1974041EA030CCC
:1002000094404FEA174E230CBCFBFEF6B9B20EFB2E
:1002100016CC43EA0C4306FB01F0984209D9FB18BF
:1002200006F1FF3C80F01581984240F21281023EB7
:100230003B441B1AA4B2B3FBFEF00EFB103344EA9E
:10024000034400FB01F1A14209D93C1900F1FF333D
:1002500080F00181A14240F2FE8002383C44641AE1
:1002600040EA064000211DB1D4400023C5E9004307
:10027000BDE8F08702B9FFDEB2FA82F2002A4FD160
:10028000CB1B4FEA174E1FFA87F80121B3FBFEFC88
:10029000260C0EFB1C3346EA034608FB0CF3B34264
:1002A00007D9BE190CF1FF3002D2B34200F2EB8045
:1002B0008446F61AA3B2B6FBFEF00EFB106643EAC4
:1002C000064408FB00F8A04507D93C1900F1FF33AC
:1002D00002D2A04500F2D2801846A4EB080440EAFE
:1002E0000C40C0E78B4208D9002D00F0AF80002100
:1002F000C5E900060846BDE8F087B3FA83F1002996
:1003000049D1B34202D3824200F2BB80841A66EB29
:10031000030301209C46002DAAD0C5E9004CA7E7A5
:10032000C2F120039740D8409140DE404FEA174E7B
:1003300008434FEA104CB6FBFEF11FFA87F80EFB9C
:1003400011664CEA064601FB08F3B34204FA02F4D4
:1003500009D9BE1901F1FF3C80F08E80B34240F212
:100360008B8002393E44F31A86B2B3FBFEF00EFBDB
:10037000103346EA034600FB08F3B34207D9BE191F
:1003800000F1FF3C74D2B34272D902383E44F31AF2
:1003900040EA01417AE7C1F1200703FA01F422FAA9
:1003A00007F31C4320FA07F906FA01F34FEA144C4D
:1003B000FE4049EA03094FEA1943B6FBFCFE1FFA67
:1003C00084F80CFB1E6643EA06460EFB08FAB245AB
:1003D00002FA01F200FA01F308D9A6190EF1FF3072
:1003E00048D2B24546D9AEF1020E2644A6EB0A0623
:1003F0001FFA89F9B6FBFCF00CFB106649EA0646C9
:1004000000FB08F8B04507D9A61900F1FF3C2DD232
:10041000B0452BD90238264440EA0E40A6EB080628
:10042000A0FB02894E45C446CE4618D315D075B3FD
:10043000B3EB0C0266EB0E0606FA07F722FA01F39D
:10044000CE401F43C5E90076002111E72946284622
:100450000EE76646EDE6184601E74345E7D2B8EBFE
:10046000020C69EB04040138A646E0E76046D3E7D6
:1004700060468CE78646B9E7614674E702383C443B
:100480002BE7084647E7ACF1020C3E4411E729464A
:10049000EEE600BF704700BF032973B51446064659
:1004A0001A4676D8042C06D8022C6ED8002C3FD0E1
:1004B0006FF022002CE0062CFAD15C681A683C4BE5
:1004C000E517C3FB0245012C75F1000322DB394817
:1004D00035A3D3E9002320184FF0000145EB0101BB
:1004E000FFF70EFE80B202281CD004281CD008287A
:1004F0001CD0102822D103232F49F26851F8231071
:10050000116152681B011469232130223046A04733
:1005100002B070BD2948201823A3D3E9002345F178
:10052000FF31DDE70023E7E70123E5E70223E3E707
:100530001B881BB1224A01340B2C02D16FF015002D
:10054000E6E732F814109942F5D1F5686B680DF1C1
:1005500007029B682021304698470028D8DB9DF889
:100560000730190722460CD4082CA1D003F00F0342
:1005700043EA02126B68D2B2DB682021304698470A
:10058000C6E70A2C08BF0922F0E7214602F0FAFC70
:10059000BEE70C4B0C490D48C91AC908890141F046
:1005A000020108F05DFA83E73AA39500000000001D
:1005B00040420F009DD14A00C4C20000632EB5FF27
:1005C00078C50000DCC00000E4C0000067CD00007A
:1005D00010B501F0A5FC094C002001F00FFD00282A
:1005E000FAD123782BB900214FF4767007F010FB75
:1005F000F2E70348BDE8104007F030BB06240020B6
:100600007C01002010B588B00D4C0E494FF4767275
:100610000023CDE9062300236FF00F02CDE9032369
:10062000CDE9013300934FF44072074B204607F0A9
:1006300085FB0649204608B0BDE810400BF0BABB68
:10064000D0060020D8440020D10500008EC500004F
:10065000044B01221A7004484FF0FF324FF0FF3371
:1006600007F01CBB062400207C0100202DE9FF417F
:10067000404B414C4148E41AE408A40144F0030112
:1006800008F0EEF900F0C6F8FFF7BCFF3C4800F0B8
:1006900089F830B93A493B4844F0010208F0EDF9D5
:1006A000FEE7394806F0E2FCC668054683684FF469
:1006B00088721B681F21984718B9336823F00043DC
:1006C0003360AB6801A95B682846984798B9019BDD
:1006D000002B10DB4FF08043D3F800340BB1DB0765
:1006E00009D52A4844F0030108F0BAF902F074FF72
:1006F000274803F0CDFA01A800F0A4FA054628B176
:10070000244844F0010108F0ABF9FEE744F0030689
:1007100032460399204808F0B0F931461F4808F0E6
:100720009FF9FFF795FF9DF80800694600F046F82D
:10073000009B039E1E44019B1F8906EB07084FF098
:100740002002EFF3118382F31188BFF36F8F08F05B
:1007500026FE01F01FF8F35983F3088885F3148807
:10076000D8F8043098470E4844F0010108F078F9B1
:10077000FEE700BFDCC00000F4C0000096C500002A
:10078000AAC50000BDC50000D7C50000DEC5000039
:1007900058C10000FDC500001BC6000045C6000092
:1007A00065C6000010B5044C236813B906F05EFC62
:1007B0002060206810BD00BF4407002008B50B462C
:1007C000014668B1074A084B08489B1ADB089B01A1
:1007D00043F00103002208F064F96FF0150008BD32
:1007E0001860FCE7DCC00000F4C0000083C6000015
:1007F0001FB5074A03460C46106801AA194609F0BE
:1008000081FA18B9019B2360029B636004B010BD9C
:100810004407002002484FF4C05105F051BF00BF0B
:100820000724002070B5012188B00446002007F09D
:10083000BBFC06A9C0B202F033F8002855D1012153
:1008400007F0B2FC07A9C0B204F12C0602F028F8A8
:1008500028B1E16B11F0100113D001243FE007989B
:1008600007F0ABFC0546079808F06CFC04F12B037D
:1008700004F12F029A42F0D013F8011FA942F9D0D7
:10088000E7E7E26A1A4B9A4210D006980021826884
:1008900008F09FFC174B184A18491948D21AD20879
:1008A000920142F0010208F0E8F8D6E7A08EA26BB0
:1008B000C3439A42E9D8069B024498689042E4D91F
:1008C0004FF4807201920F4A0092CDE90311029118
:1008D0003246084600F074FD04460028D5D106983B
:1008E00008F030FC204608B070BD4FF0FF34F9E747
:1008F0003DB8F396DCC00000F4C00000A4C60000C0
:10090000AEC60000A81B002073B50D4604460021AA
:100910002846CDE9001107F0F0FCF0B1124E226834
:10092000B24203D101AA204607F05EFCE36AB3425B
:1009300004D16A460121204607F056FCDDE9003269
:10094000934288BF0193019BAB602046019A2946E0
:1009500000F022FB002002B070BD05F1080100F09C
:100960006BFCAB680193F0E73DB8F3962DE9F04BD3
:10097000099FDFF84CB00E46904699460024BC42D1
:1009800001D300200EE03D1BB5F5806F28BF4FF46A
:1009900080650B4A2B4604EB0901304608F0D3FB77
:1009A00010B10120BDE8F08B08992B465A4661181A
:1009B000404608F0E5FB0028F3D12C44DFE700BFF8
:1009C000A80700202DE9FF41044660220F460021C0
:1009D00008F0B5FF914B63620021914B23650846F7
:1009E00007F0E2FB04F12001C0B201F059FF012140
:1009F000002007F0D9FB04F14C01C0B201F050FF18
:100A00000546204607F050FC804668B1854A864B73
:100A10008648D21AD208920142F002024FF4807145
:100A200008F02BF8012396E002460146204607F025
:100A300023FC064648B17B4A7B4B7D48D21AD2083C
:100A4000920142F002024146EAE7204600F0B8F97E
:100A50000028E7D0684607F047FC6946204607F0C3
:100A6000E1FC804648B16F4A6F4B7248D21AD208F7
:100A7000920142F002023146D2E7684607F03DFC9F
:100A800080F001016A46C9B2204607F0F5FB024634
:100A90000028D0D1684607F030FC064690BB694676
:100AA0002046FFF731FF9DF8073084F85830033BAC
:100AB000012B06D8304607F0FDFC10B1FF2384F867
:100AC00058309DF80730023B022B11D8002007F068
:100AD000DFFC68B1FF2384F858305249524B564826
:100AE000C91AC908890141F0010107F0B9FFFEE701
:100AF00094F85830FF2BF0D06A460021204607F0CA
:100B0000BBFB8FE79DF80730012B1FD1104600F08B
:100B1000DFFB831E022B064607D82046FFF782FE26
:100B2000012811D0002818BF052684F8586094F8D1
:100B300058308DF80730042B13D8012B17D82ED03E
:100B4000FF2384F858302AE00646EEE72046FFF7F8
:100B500069FE18B1052384F85830E8E79DF807309E
:100B6000F9E7052BECD1002007F0A4FC12E0694660
:100B70002046FFF7C9FE94F85830DA1E012A0546D0
:100B80000BD8002007F096FC05460028D8D100209D
:100B900007F07EFC054610B1D2E7022BF7D094F89F
:100BA0005830FF2B0AD11F491F4B2348C91AC908C7
:100BB000890141F0010107F053FFFEE7012B06D048
:100BC0006A460021204607F057FB054680B9226897
:100BD0001A4B9A4216D0144A124B19489B1ADB083A
:100BE0009B0143F001030022214607F05AFF032531
:100BF000E06C08F0A7FA206A08F0A4FA284604B0CE
:100C0000BDE8F08110220021684608F098FE236AB2
:100C10005A783A715B68BB603C60E9E7A80B00203A
:100C2000A8130020F4C00000DCC00000D1C6000002
:100C30000EC7000035C700005AC700003DB8F39644
:100C400061C7000001460148FFF7BCBE480700200D
:100C500073B516461C4633B3436A5D686379012B4E
:100C600015D101BB1F4B22681B689A4298BF002513
:100C7000002007F099FA01A9C0B201F011FEF0B10D
:100C80000125019808F05EFA284602B070BD022BDB
:100C900009D12368012B08D9124A1268934202D85D
:100CA000B1FA81F149090025E2E7FCD10029DFD042
:100CB0000129F8D12179023918BF0121F3E729462A
:100CC00001982023324608F03EFA05460028D7D185
:100CD000002CD6D0356804482D1A18BF4FF0FF35C8
:100CE000CFE700BF000000203DB8F3962DE9F04F9C
:100CF000074685B00C4601460020164607F050FC1A
:100D0000051E52DB3846E46D07F057FC5FFA84F8A5
:100D1000691E08FB01014FF000094FF0010A4FF076
:100D2000FF34CDB9B9F1010F09DD2249224B234827
:100D3000C91AC908890141F0010107F091FE631C3D
:100D400006D0FF2C25DC013440F201133460B3805F
:100D5000284605B0BDE8F08F01230DF10F0238469B
:100D6000019107F02CFA002805F1FF3B1FDB012859
:100D7000019909D1BAF1010F01D009F10109A1EBE3
:100D800008015D468246CCE7B4F1FF3F08BF2C4620
:100D9000F5E70223A4F580747371631004F0010475
:100DA0000133013433603471D2E70725D0E70125E0
:100DB000CEE700BFF4C00000DCC0000081C7000027
:100DC000826A436D9A4210B50BD01949194B1A48E3
:100DD000C91AC908890141F0020107F041FE00204B
:100DE00010BDB2F5807F20D91149124B1348C91AA2
:100DF000C908890141F00201EFE7016D01EBC3046D
:100E0000416A646801EBC30149688C4208D0084913
:100E1000084B0B48C91AC908890141F00201DCE7F7
:100E200001339342E9D10120DAE70023F9E700BF5B
:100E3000F4C00000DCC000009FC70000D7C700005E
:100E400001C8000010B588B001A9042007F0C3FB59
:100E50001B4C1C4B9DF804101B4A0392E41AE40837
:100E6000A401012944F0030323D0184A1848032998
:100E700008BF024604929DF8052005929DF80620C1
:100E800006929DF80720079203A91248052207F051
:100E90003DFE9DF80430012B44F003010BD19DF879
:100EA0000630032B07D10C4807F0DAFD022008B00A
:100EB00010BD0A4ADEE70A4807F0D2FD0020F6E737
:100EC000F4C00000DCC0000028C800003CC80000DE
:100ED00036C8000045C8000081C8000040C80000B6
:100EE0009BC8000070B5064618464B681446224A57
:100EF00003F0FF23934288B00D4638D10B68012BD5
:100F000035D101A907F067FB1C4A1D4B9DF8041061
:100F10009B1ADB081B4A03929B01012943F0030340
:100F200027D0194A1948032908BF024604929DF8A0
:100F3000052005929DF8062006929DF8072007924D
:100F40001348052203A907F0E1FD9DF80430032BA7
:100F50000DD12146304607F011FA204607F05BFB21
:100F6000A968204607F072FB204600F0A3F908B0FC
:100F700070BD084ADAE700BF00010004DCC00000D1
:100F8000F4C00000ADC800003CC8000036C8000036
:100F900045C8000040C800002DE9F04F436A0C46E8
:100FA0005E6889B005460121002333449342084618
:100FB00001F10101F9D36B4F3860204607F09DF92C
:100FC000B846E8B1E86D07F0E6FAAB6A0022013BEB
:100FD0003244904201D9013BFAE7D8F800209A4206
:100FE0000ED3614B61496248C91AC908890141F0B1
:100FF000020107F035FD0123E37109B0BDE8F08F70
:1010000006A9042001F04CFC07A9022001F048FCCD
:101010000223079A21462846FFF764FF6379012BD4
:1010200006D1D8F80070D8F8003097B901232360B2
:101030000223637101270493D8F80030DDF818A06B
:10104000BB4244D2504608F07DF8079808F07AF881
:10105000D3E7216801335B1A9F4236D86A6ADDF80C
:101060001890136852F8370002EBC702012952F8B2
:10107000082CA0EB030AA2EB030B12D1E268079B3A
:10108000022A0AD049462846029307F077F92246F9
:101090004946284607F0A7F9029B1946284607F05B
:1010A0006DF932465146484607F066F95B464A46B6
:1010B0004946CDE900A62846FFF758FC21462846B8
:1010C00007F028F9236801332360013FABE7236869
:1010D000BB4244D86A6ADDF81CB052F8371003915D
:1010E000FB0011680291083B296DC8580968A0EB04
:1010F00001092179012930D1D158029B3246C91A00
:101100005046059107F038F9059900914B46524633
:10111000594601962846FFF729FC2146284607F044
:10112000F9F8049B237132464946584607F024F9E2
:10113000DDE9022351469B1ACDE900965A4628461E
:10114000FFF714FC2146284607F0E4F82368013332
:1011500023604FF00103237101E00229E3D001373E
:101160006AE700BF00000020DCC00000F4C00000FF
:10117000BDC8000030B50C46816887B0102302AAB4
:101180001039054607F01BF8002802DA012007B0E5
:1011900030BD012837D103232370A96801230DF145
:1011A00007022839284607F00AF80028EEDB9DF8E8
:1011B0000730012803F00F024FEA13136270237106
:1011C00001D0042A03D90123637000232371A96885
:1011D0000123A21C2039284606F0F1FF0028D5DBA8
:1011E00001281AD10323A370A9680123E21C18392E
:1011F000284606F0E4FF0028C8DB012813D10323AA
:10120000E3700020C3E70B49102202A808F05CFB42
:10121000002814BF02230123BEE7A378012B0CBFD3
:1012200001230223DFE7E378012B0CBF0123022314
:10123000E6E700BF6CC100002DE9F04186B0042351
:10124000DFF86C80ADF800300D466F46002617F8C9
:10125000010B01A901F024FB0446D8B9019881686B
:10126000102302AA103907F06EFF044628B1019836
:1012700007F068FF0EE00126E9E71022414602A8C8
:1012800008F022FB50B1019807F05CFF002EF2D06D
:101290004FF0FF34204606B0BDE8F0810198816828
:1012A00004232A46303907F04EFF0446DFE700BF2B
:1012B0006CC100008168054A08B51039102307F099
:1012C0005FFF003818BF012008BD00BF6CC10000DF
:1012D0002DE9F04385B06946042007F07CF918B188
:1012E000FF2005B0BDE8F08302A9022007F073F9E2
:1012F00002460028F4D19DF800509DF808609DF842
:1013000003709DF80B809DF80290244C20782946AC
:1013100007F033F9F8B16078314607F02EF9D0B113
:10132000A378042B01D0BB4215D1E378042B01D064
:10133000434510D12379042B0BD1194B194AD21AEA
:101340006379D2089201022B42F0030214D11649AC
:1013500019E04B45F1D00132032A04F10604D5D13E
:101360000F4B10491148C91AC908890141F00301FE
:1013700007F076FB0120B4E7032B0CD00C490D4895
:10138000042B08BF01460C4807F077FB6079831EE9
:10139000022BA6D9A4E70949F5E700BF28C9000038
:1013A000DCC00000F4C0000005C9000018C900003E
:1013B000EEC80000E7C800000AC9000000C900002C
:1013C0002DE9F04FF9B0DDE9844838A8DDF808B21E
:1013D000869E15461F460AF038FA002138A805F007
:1013E0007FFA3CB1B8F1000F04DD4246214638A82F
:1013F0000AF02FFA6B89B5F808809844EB684FF033
:1014000000099844C84529D80DA938A80AF05EFA01
:1014100026B120220DA9304608F066FA0023009379
:101420003A464FF6FF73294607A807F01BF9044612
:1014300080B9DFF86C91064680464FF0FF350DF11C
:10144000160305AA06A907A807F058F900281FDA0D
:101450004FF0FF34204679B0BDE8F08F839AA8EBB7
:1014600009039A4228BF1A461346924649465A46ED
:10147000384607F068FE04460028EBD1524659462C
:1014800038A80AF0E6F9D144BCE74FF0FF35D6E7BB
:101490007AD1BDF81640102C17D1BDF81480B8F1E0
:1014A000200FD5D10699434638AA384607F04BFE9F
:1014B00004460028CED1424638A90DA808F004FA07
:1014C0000028C5D14FF00108B9E7012C36D1BDF88D
:1014D0001430202BBCD8069938AA384607F033FEC2
:1014E00004460028B6D19DF814B0BBF1200F03D9F3
:1014F0004FF0FF342546A2E7D9F80030274D03937B
:10150000039B9C42F4DA1DA80AF09FF900211DA854
:1015100005F0E6F96B6855F8081B1A681DA80AF073
:1015200098F915A91DA80AF0D1F95A4638A915A8A5
:1015300008F0CAF90028DDD00134E1E7202C7FF45F
:101540007EAF002DA1DBD9F80030AB429DDDBDF8A8
:101550001430B3F5807F7FF47BAF069938AA384604
:1015600007F0F1FD00287FF473AFEDB20095BDF8F0
:10157000143038AA21460DA800F014F800284FF0C6
:10158000FF3508BF01265AE7B8F1000F3FF460AFFE
:10159000B6FA86F0400944425CE700BF64C100002F
:1015A00060C100002DE9F0479046ADF54A7D00226C
:1015B0000746894627A811469DF848531E460AF05B
:1015C00000F9724B53F83540029403EBC5038AAA25
:1015D0005B6819680C443023214602A808F0D8FD46
:1015E00010B14FF0FF340DE0029B8A9A13449C42E5
:1015F00040F0C88029AA214602A808F0DDFD48B1C4
:101600006FF0020427A80AF0E7F820460DF54A7D9E
:10161000BDE8F0870DF1B00A5246214602A808F055
:10162000CBFD05460028EBD129A809F041F9029B22
:1016300028909C4240F0A380CDE9005A2B462A46D0
:1016400029A927A80AF079F8002840F0958027A852
:1016500005F0E4F80446002840F08B8029A809F042
:1016600027F986422890CDD1B6F5807FB9D1B9F15E
:10167000200FB6D18AAA414627A805F0F3F8044600
:101680000028AED19DF82733BC2BAAD10DF5A47844
:101690000390DF2645460CA80AF0D7F800210CA8D5
:1016A00005F01EF920220DF207310CA80AF0D1F83E
:1016B000042203A90CA80AF0CCF804A90CA80AF08B
:1016C00005F91F2E9DF80F30D4BFB1464FF0200909
:1016D000013340464A4604A9A6EB09068DF80F30AF
:1016E00008F002F9002EC844D5DCAC468AAB294686
:1016F000DF22087813F8016B013A80EA060001F84E
:10170000010BF6D12B7803F07F032B701CF8016BD3
:10171000002E7FF466AF0134BE2CF7D195F8BE30B1
:10172000012B7FF45EAF0CA80AF08FF831460CA8AD
:1017300005F0D6F8164908220CA80AF08AF82022EB
:1017400039460CA80AF085F820220DF207210CA8D2
:101750000AF07FF804A90CA80AF0B8F820220DF2CC
:10176000073104A808F0B0F8041E18BF0124644231
:1017700048E76FF0050445E76FF0040442E76FF0B7
:1017800003043FE76FF001043CE700BF64C10000C1
:101790003AC90000BFF36F8F72B6124B4FF0FF32A1
:1017A000C3F88020C3F88420C3F88820C3F88C20B5
:1017B000C3F89020C3F89420C3F89820C3F89C2065
:1017C000C3F88021C3F88421C3F88821C3F88C2191
:1017D000C3F89021C3F89421C3F89821C3F89C2141
:1017E000704700BF00E100E02DE9F043054607988F
:1017F00010B91060BDE8F0830324B0FBF4F404EBEF
:101800004407B84218BF0134B4F1804F05D34FF0FC
:10181000FF3313606FF00B00ECE7A40001348C423F
:1018200000D80DB91460F5E7DFF8BCE02E460024BF
:10183000BC4231469C4606F1040603F103032CD357
:10184000844225D29CF80060274F0134844238BF7F
:101850009CF801304FEAA60C28BF002317F80CC0F3
:1018600081F800C0844207EB131C3CBF9B0003F0CF
:101870003C034FEA061606F0300638BFFB5C1CF846
:1018800006604E7028BF3D238B703D23CB70043122
:101890004D1B002015600870ACE713F803CC13F85B
:1018A000021C13F8018C4FEAAC094FEA0C1C1EF81D
:1018B000099006F8049C0CF0300C0EEB111989000D
:1018C00019F80CC006F803CC01F03C010EEB981C93
:1018D00008F03F081CF8011006F8021C1EF808105A
:1018E00006F8011C0334A3E7D0CA00002DE9F04339
:1018F0004FF0000C079EDFF82881074665466046DA
:10190000B5420AD32E4604E00135AE420EF1010E77
:1019100005D1A8BB1060BDE8F0834FF0000E5C5D00
:10192000202CF1D0AE42F4D0A6EB0509B9F1010F9D
:1019300015D90D2C13D103EB050999F80190B9F1D4
:101940000A0F1BD0BEF1000F06D13D2C09D10CF1BE
:10195000010CBCF1020F07D96FF01500DBE70A2C70
:10196000EFE714F0800FF7D118F804407F2CF3D084
:101970003F2C02D8BCF1000FEED101300135BFE79A
:10198000062500F007046C4304F1070EC4086C43FD
:10199000A4EB0C0404EBDE0487B18C420ED80025C6
:1019A000DFF87CE0DFF87C801E44394603242846BB
:1019B0009E4207D1C91B11600020ACE714606FF094
:1019C0000B00A8E713F8019BA9F10A0C5FFA8CFC45
:1019D000BCF1160F04D828FA0CFC1CF0010FE7D15B
:1019E0001EF809C00130BCF1400F08BF013C0CF0EB
:1019F0003F0C04284CEA8515DAD17CB1280C012C67
:101A0000087002D101310020D2E7022C4FEA1520E4
:101A1000487016BF8D7002310331F4E72046C7E7E6
:101A200050CA0000090040002DE9F04F85B09B46E8
:101A30000E9CDFF89090012CB8BF0124012B0CBF45
:101A400030232023154606468A46029301274FF08D
:101A50000A080022B5FBF9F301930AB9A9451FD87A
:101A6000019B514603F13000B04701370122019B31
:101A700008F1FF38B8F1010F09FB13554FF00A03C5
:101A8000B9FBF3F9E6D1514605F13000B047BBF19F
:101A9000030F02D1E41B002C0EDC05B0BDE8F08F73
:101AA0004445E4DBBBF1020FE1D8029803925146B2
:101AB000B0470137039ADAE751462020B047013C8E
:101AC000E9E700BF00CA9A3B014B1860704700BFAE
:101AD000040000202DE9F04F8DB01C460027531E56
:101AE00005468B4603934FF0FF39B846002605E0C4
:101AF0006EB9252800F071815946A847039B13F859
:101B0000010F03930028F3D10DB0BDE8F08F7A28C0
:101B10000AD8622810D8302854D045D8252800F09B
:101B20005A812D2800F05F8159462520A847039B44
:101B300018785946A847D9E7A0F16303172BF3D8C3
:101B400001A252F823F000BFCF1D0000131C0000BB
:101B5000291B0000291B0000291B0000F51B0000A9
:101B6000131C0000291B0000291B0000F51B0000AE
:101B7000291B0000291B0000291B0000B51C0000C8
:101B8000291B0000291B00009F1D0000291B0000CD
:101B9000831C0000291B0000291B0000B11B000052
:101BA000291B0000F51B000039281AD95828BBD181
:101BB000039B1B78702B40F0888054F8043B0693FD
:101BC000002290E0B9F1000F0EDAB8F1000F00F03A
:101BD0000D81A0F13009B8F1000F08BF4FF00208E5
:101BE0008CE7B9F1000FF4DB0A2303FB0909A9F123
:101BF0003009F0E7682803D1682F06D148277DE730
:101C00006C2802D16C2F00F0F480002F8CD1074695
:101C100074E77A2F02D154F8046B21E06C2FFAD0CC
:101C20004C2FF8D1073424F00704F4E80223CDE95F
:101C30000423049B13F10041059B089143F100012B
:101C40000991DDE9082300214FF0FF30994208BFD8
:101C5000904204D25946284606F0CAFD46E7049E43
:101C6000002E05DA59462D20A847764209F1FF39A2
:101C7000CDF800904346324659462846FFF7D4FE39
:101C800034E77A2F02D154F8042B0FE06C2FFAD0EE
:101C90004C2FF8D1073424F00704F4E80223002184
:101CA0004FF0FF30994208BF9042D3D3CDF8009057
:101CB0004346E1E759463020A84759467820A847CF
:101CC0004FF008094FF0010872E76C2F3FF475AF31
:101CD0004C2F7FF472AFE31D23F007031C4654F82A
:101CE000082B06925A6800211023049107914FF0A7
:101CF000400AAAF1040A0699CAF1200EAAF1200CA2
:101D000021FA0AF002FA0EFE40EA0E0022FA0CFC5A
:101D100040EA0C0010F00F0007D1079911B9BAF191
:101D2000000F25D14FF0300C05E009288CBF4FF093
:101D3000570C4FF0300C6044594640B20A9207935A
:101D4000A847049B0A9A01330493079BBAF1000F3A
:101D500023D1B8F1030F7FF4C9AE049BC3EB49064E
:101D6000002E7FF7C3AE59462020A847013EF7E773
:101D7000591E99450A9107DBB8F1010F06D10B9264
:101D800059463020A8470B9A0A9BB2E7B8F1020FD8
:101D9000FAD10B9259462020F4E70796A9E754F8A8
:101DA000046BB24653461AF8010B68B9B8F1030F39
:101DB00021D19E1BA9EB0606002E7FF797AE594650
:101DC0002020A847013EF7E75946A847EAE754F81C
:101DD000040B5946AEE65946ACE63746B0464FF0DE
:101DE000FF3901268AE64FF0030887E64FF0010825
:101DF00084E64C2782E6064680E600BF30B585B013
:101E0000CDE90101044600250548039501A9FFF726
:101E100061FEDDE902309842B8BF255405B030BDFF
:101E20000D88000008B500F03FFA094806F0D0FD23
:101E3000042328220749084809F096FE074B084A60
:101E40001A604FF40040BDE8084000F071BC00BFCC
:101E5000B41C002018790020BC1C002008000020C1
:101E60000F8A0000F8B50F4BBFF35B8F002553E8D6
:101E7000007F43E80052002AF9D1BFF35B8F0A4C80
:101E80000A4E361B3611B54200DBF8BD63685B793C
:101E90002BB12368DB6813B13946204698470135DA
:101EA0001034F0E7AC1C002034C1000044C1000035
:101EB000064BBFF35B8F53E8002F013243E800214C
:101EC0000029F8D1BFF35B8F704700BFAC1C002026
:101ED000044A054B9B1AB1EBD30F34BF52F83100C3
:101EE00000207047DCC0000034C10000094B42688C
:101EF000C31A1B11013310B513714368064C1960E6
:101F000001225A71227812B9044805F0A7FE012374
:101F1000237010BD34C10000073C00208C0100205C
:101F200070B5114BBFF35B8F53E8005F6A1C43E849
:101F300000210029F8D1BFF35B8F2DB90B4C0C4E5B
:101F4000361B3611B54200DB70BD237B43B12368DD
:101F50005B6903B19847042200212046FFF7C6FFC2
:101F600001351034EEE700BFB01C002034C1000082
:101F700044C10000164B984237B5044602D3154BB6
:101F8000984220D314480022002301A905F0FCF94F
:101F90000546D8B90122019BBFF35B8F53E8001FB0
:101FA00043E800200028F9D1BFF35B8F0198214658
:101FB0001F22043007F062FC019C7E2384F823304A
:101FC00084F824500434204603B030BD034CFAE7B3
:101FD000CCBE00004CD80000BC1C002010CB000080
:101FE00048B1054B984205D3A03398422CBF00203E
:101FF0000120704700207047187900202DE9F04F2C
:102000004C4B1B7885B0044603B960B34FF02003F6
:10201000EFF3118683F31188BFF36F8F464806F004
:10202000E7FC054686F31188BFF36F8F78B1BFF3E5
:102030005B8F424B53E8002F013A43E8002100290F
:10204000F8D1BFF35B8F94B1284606F005FE24B9A2
:102050003B4B1B680BB1FFF705FF374806F0C6FC8A
:10206000041E18BF0124204605B0BDE8F08F354B93
:102070001B78CBB92B7ADB0716D406F000FE80461E
:10208000284606F0C7FD0146404606F0C4FC2E4F28
:102090002E4BDFF8D4B0DB1BDB0803932C4BDB1B90
:1020A00006464FEAD30A36B92A4E2B4FBF1B3F11C3
:1020B0004FF000083AE0B6FA86F1C1F11F0949462F
:1020C000284606F0AAFD254B9842014602D3244B30
:1020D00098421AD30846FFF783FF0246A8B9214B5E
:1020E000994212D06B8903989909B0EB931F4FEA7C
:1020F0008A1343F0010388BF57F83120ADF8003050
:1021000049464346584606F0E5FC012101FA09F12B
:1021100026EA0106C7E773685B7923B1336829466D
:102120001B683046984708F101081036B845F2DBC5
:102130008AE700BF073C0020B41C0020A81C002038
:10214000AC1C0020083C0020DCC0000034C10000B2
:10215000ECC0000034C1000044C10000CCBE00004F
:102160004CD8000010CB00002ACB0000284B73B5E0
:102170001B68418104469847264DE060BFF35B8FA2
:1021800055E8003F013345E80032002AF8D1BFF39B
:102190005B8F4FF02003EFF3118683F31188BFF3B9
:1021A0006F8F1D48214606F017FC86F31188BFF398
:1021B0006F8F1A4B1B7883B14FF02003EFF311841C
:1021C00083F31188BFF36F8F0020FFF717FF84F3AD
:1021D0001188BFF36F8F02B070BD114A2B6812686F
:1021E000002AF8D0012B07D1002200230D48CDE9A9
:1021F000002305F079FFEEE70A2BECD1094809F03E
:1022000022FE094802B0BDE8704005F027BD00BFBE
:1022100008000020A81C0020B41C0020083C00205E
:10222000D81C0020C80100208C010020F8B50E4FFA
:102230003D7875B90D4C0E4EFFF772FE361B361108
:10224000B54207DB0020FFF7D9FE0028FAD10123B1
:102250003B70F8BD63685B791BB1236820461B693E
:10226000984701351034EBE7083C002034C10000EA
:1022700044C1000007B504380190BFF35B8F50E8FC
:10228000003F5A1E40E800210029F8D1BFF35B8FC0
:10229000012B03D1034801A905F0A8F803B05DF8AC
:1022A00004FB00BFBC1C00202023024902481A4640
:1022B00009F05ABCB8790020DC1C002037B5002397
:1022C000094D01930120FFF799FE0446FFF7F0FD49
:1022D0000022002301A9284605F056F808B1002C79
:1022E000F0D1019803B030BDDC1C002007B50023FD
:1022F000019307480022002301A905F045F810B119
:10230000FFF7DCFF0190019803B05DF804FB00BF0C
:10231000DC1C0020F0B5037A457A85B02D090190C8
:10232000D8071CD4DDB1002426460198314606F0BA
:1023300074FC0746FFF754FE70B134B9019B29467F
:10234000186906F068FB044648B124FA06F3D90779
:1023500002D53846FFF78EFF0136AE42E5D3019B2A
:102360001A7A920704D55B69084C0393039B2BB937
:10237000064801A905F03AF805B0F0BD1D6803A9AB
:10238000204605F033F80395F0E700BFDC1C002081
:102390000EB403B503AB014653F8042B0448019374
:1023A000FFF798FB002002B05DF804EB03B0704724
:1023B000CD9000002DE9F04F85B011F00204904659
:1023C0009DF8387006461A4601F0010901F008052B
:1023D00007D011F0440F37D13249FFF7D9FF01463A
:1023E0000C46B9F1000F0AD02F4B304953F8272083
:1023F0002F4B3046002A08BF1A46FFF7C9FF3DB1F0
:102400002C4B2D4953F827203046FFF7C1FF0546D6
:10241000B8F1000F43D0012303FA07F7274B17F059
:10242000100F274F18BF1F46BDF840109DF83C0005
:10243000FFF74EFD394602463046FFF7A9FF284414
:10244000204405B0BDE8F08F1E4B19680029C7D0A5
:102450001D4B4FF4616E1B68B2FBF3F34FF47A7CB3
:10246000B3FBF1F4B4FBFEF20EFB124E01FB14348D
:102470000CFB04F44FF03C0AB4FBF1FB01FB1B44E2
:102480000CFB04F4BEFBFAF3B4FBF1F1CDE901B1AE
:102490000AFB13E100910D49FFF77AFF9FE7084F10
:1024A000C2E700BF7BCB000080C10000BCCC0000B5
:1024B0006DCB000094C10000A0CB000077CB0000E2
:1024C00072CB0000F81C0020FC1C002084CB000014
:1024D00038B50C46E107054603D5084A0849FFF719
:1024E00057FFE20608D4A30628464CBF0549064913
:1024F000BDE83840FFF74CBF38BD00BF6DCB0000D2
:10250000BCCC0000A7CB0000A6CB00002DE9F04713
:102510001D46089B1746DA0604460E4605D4990662
:102520004CBF2A492A49FFF733FFDFF8AC904FF040
:102530000008A8452ADBDFF8A480DFF8A490DFF8C4
:1025400098A00025BD422FD2725D49462046FFF774
:102550001FFF0135102D20D11E49DFF87C80DFF8E8
:1025600084902046FFF714FF0025AF4228D9725D02
:10257000A2F120035F2B28BF2E2249462046FFF7F9
:1025800007FF0135102D14D1BDE8F08749462046DC
:10259000FFF7FEFE08F10108CBE76A07D2D15146EA
:1025A0002046FFF7F5FECDE741462046FFF7F0FE57
:1025B000CFE76B07D9D141462046FFF7E9FED4E7C4
:1025C00041462046FFF7E4FEDBE700BFA7CB000053
:1025D000A6CB0000B3CB0000B1CB0000AFCB000016
:1025E000A9CB0000B5CB00002DE9F0478B7A13F0A2
:1025F000070817468AB00A7A05460E4620D0498950
:10260000C3F3C2038909D243CDE900830291F36881
:1026100002F001023946FFF7CDFE8146347AE443E9
:1026200014F001040ED02946304606F0E5FBB8F15F
:10263000000F2BD0424639462846FFF749FF25E0D8
:10264000C146EBE7B8F1000F26D12746EB680693A9
:1026500006AA3B46A968304606F0BAFB069A6B68A4
:102660001A603AB1AB68134413F8014CA4F10A03A1
:102670005C425C41284606F01CFD069B1F44002B73
:10268000E4D11CB113492846FFF782FE284606F024
:1026900010FD0AB0BDE8F087304606F0F0FA0E49AA
:1026A00002462846FFF774FE4FF0100A05AA23469B
:1026B00006A93046CDF814A006F08AFB059A002A38
:1026C000B8D04B46009706A92846FFF71FFF059B89
:1026D0001C44EBE769CF0000BCCC000073B5D0E927
:1026E00000435D680F4A42F20F738B4228BF0B46CE
:1026F0006846052106F0AAF82B4606460A492046F8
:102700000B2206F06CFB2B4632466946204606F04B
:1027100066FB06492B461B22204606F060FB02B0F2
:1027200070BD00BFBACD0000F4CB0000D8CB0000D4
:10273000084A10B50123084C13600021A04204D8B8
:1027400001B11360054B186010BD40085B0001210A
:10275000F4E700BFFC1C002040420F00F81C0020E2
:10276000014B01221A707047193C002008B503483C
:1027700006F09FFC024B01221A7008BDC0C1000088
:102780001A3C00200148FFF7A9BF00BFC0C10000EC
:1027900010B508460C4606F030FA054821460F22CF
:1027A000FFF722FF2046BDE8104006F055BA00BFF3
:1027B000C0C10000054B1B781BB141F2883009F005
:1027C000F7BAA420002105F023BA00BF1A3C00206C
:1027D0002DE9F84FDFF89090DFF890B007460E46ED
:1027E0000424CA4699F8003033B94FF0FF324FF055
:1027F000FF33584604F024FE32463946002000F0EC
:10280000ADFD9AF80030804613B9584604F090FEAA
:10281000144DB8F1000F18D001232B709AF8003036
:1028200033B93046BDE8F88F5CB92C704FF0FF34F7
:10283000002000F013FE0028F3D02B78002BF3D1FA
:10284000EFE7013CFFF7B6FFF2E72B7813B1013C4D
:1028500004D12C702B78002BC4D1E2E7FFF7AAFF3C
:10286000F8E700BF193C00201A3C0020B00100200E
:10287000094B30B51D68094B02461C6800239D4278
:1028800001DC002030BD190104EB0310615C9142B2
:10289000F8D00133F3E700BF80C200000C00002035
:1028A000084B1B6810B50C462BB1FFF7E1FF28B1B0
:1028B0002060002010BD6FF00C00FBE76FF00100FE
:1028C000F8E700BF0C00002030B589B00C46154673
:1028D0000190FFF7CDFFB8B1436802938368226887
:1028E000C068CDE903350023CDE90623059304F044
:1028F000BDFB60B1074901AA07F008FA079808B9BB
:10290000059B236009B030BD6FF01500FAE76FF04A
:102910001200F7E70991000008B504464FF02002C5
:10292000EFF3118382F31188BFF36F8F06F037FD49
:10293000204601F02BFF034805F07BFF01F05AFB16
:10294000FCE700BF18CC000010B5044C2046FFF790
:10295000BBF8204601F0FCFE002010BD61290000FC
:102960002DE9F341DFF86080164E8DF8070004462C
:1029700003254FF0FF334FF0FF32404604F060FD77
:1029800001220DF10701002000F034FD074640460A
:1029900004F0CEFD2FB101233370204602B0BDE814
:1029A000F0813378002BF8D0013D08D009F0FAF916
:1029B0000028DED10021422005F02AF9D9E7357040
:1029C000EBE700BF1B3C0020B0010020F8B5124E21
:1029D000F3680C2404FB00340123054663724FF0B6
:1029E0002003EFF3118183F31188BFF36F8F236806
:1029F0002BB160681A682260834208BF626081F36D
:102A00001188BFF36F8F03B9F8BDD3E9017229466E
:102A10003046B847E3E700BFDC000020154B07B5A0
:102A20001A6882B14FF08042D2F80423D1070AD548
:102A300000221A601B680093009B0F4BDB68587ADA
:102A400008B9FFF7C3FF0D4B1A6882B14FF08042FF
:102A5000D2F8042392070AD500221A601B6801935A
:102A6000019B012003B05DF804EBFFF7AFBF03B09B
:102A70005DF804FB00010040DC0000200401004080
:102A8000821C084B22F07F42C3F84025D3F804256E
:102A9000904200D17047D3F80405821C22F07F4297
:102AA000F2E700BF00100140044B002282B01A6020
:102AB0001B680193019B02B0704700BF40110140A9
:102AC00008B5FFF7F1FF074B074AD3F84005136835
:102AD000C01A20F07F4003441360BDE8084005F0B1
:102AE0006FBA00BF001001402C1D002038B51448FB
:102AF00004F0BCFA00B38368124D1B680121002466
:102B00009847C5F80845FFF7CFFF0F4B4FF4003249
:102B1000C3F880214FF48033C5F8043322460121E5
:102B2000112001F013FA112001F000FA074A0123E5
:102B3000136020462B6038BD4FF0FF30FBE700BF2D
:102B400041CC00000010014000E100E0081001400D
:102B500070B52A4B2A4C1968D4F80425294D521A0D
:102B6000B0F1FF3F08BF284622F07F43120234D461
:102B7000013820EAE070A842A8BF284601334FF48C
:102B800080361844C4F80863A84294BF0D184D1944
:102B9000D4F80405D4F84015FFF786FF091A21F090
:102BA0007F4120F07F430129C4F84035C4F84463D5
:102BB00004D10F2009F0FCF8FFF776FF124B4FF419
:102BC0000032C3F88021D4F804052B1A23F07F4388
:102BD000012B04D1FFF754FF0BE00020CEE725F0D6
:102BE0007F43C4F84035D4F804052D1A023D2B026A
:102BF000F0D44FF48033C4F8043370BD2C1D002092
:102C000000100140FFFF7F0000E100E04FF02002D4
:102C1000EFF3118382F31188BFF36F8F064AD2F866
:102C20000405064A1268801A20F07F4083F3118859
:102C3000BFF36F8F704700BF001001402C1D0020B4
:102C40004FF02003EFF3118283F31188BFF36F8FEE
:102C50000649074B0868D3F8043582F31188BFF39F
:102C60006F8F1B1A23F07F43184470472C1D0020E0
:102C7000001001400D2973B5C568044620D03229E3
:102C800001D0032939D16B6820461E6805F108027E
:102C900007232721B047041E0CDA1949194B1A489B
:102CA000C91AC908890141F0020105F0D9FE204680
:102CB00002B070BD2B7A13F00F0F18BF0024F6E797
:102CC0006B6801AA1C680C210223A047041E0FDABE
:102CD0000C4B0B490D48C91AC908890141F0020182
:102CE00005F0BEFE4FF68173AB826FF00404DEE7A1
:102CF0009DF805301933AB82D9E76FF04D04D6E764
:102D0000E4C00000DCC000006BCC00008ACC0000F6
:102D1000F0B54468C768064689B0206804F0A6F993
:102D2000374D384B3860ED1AED08AD0150B92168C8
:102D3000354845F0010205F0A0FE6FF0150420466D
:102D400009B0F0BD6368304698477B680DF1030217
:102D50009B680F2130469847041E05DA2B4845F042
:102D6000020105F07DFEEAE79DF80310332903D048
:102D7000274845F00202DEE70622002101A806F0FE
:102D8000DEFD07238DF804307B6801AA5C682021F2
:102D900006233046A047041E03DA1E4845F0010111
:102DA000DFE742F268533B617B688022DB682321C6
:102DB000304698477B68C022DB681F213046984721
:102DC000041E03DA144845F00101CAE7134B0393CC
:102DD00002220423CDE90423002306933B69104813
:102DE0000793052245F0030303A905F08FFE7B68D6
:102DF0004722DB6820213046984704469FE700BF02
:102E0000E4C00000DCC00000AACC0000BFCC000081
:102E1000D7CC0000EECC00000ECD000036CD000077
:102E20003CCD000070B5C5680D2930D8DFE801F051
:102E30000732340A2F2F2F2F2F2F2F2F2F0E002145
:102E40000B4601E002210023144E1BE0B5F91430BB
:102E500013F17F0F01D1002070BD0020136050607E
:102E6000FAE7181D05EB40000133B0F9014028696D
:102E70002411444394FBF6F042F8080C06FB104082
:102E800042F8040C8B4202F10802EADDE3E76FF03E
:102E90002200E1E70121D3E70221D1E740420F0000
:102EA000C368024A5A600020704700BFD4C20000C5
:102EB0002DE9F3412F4B304CC668DFF8C480E41A8B
:102EC000E408A401054644F001044FF0FF334FF03D
:102ED000FF3206F2BC4004F0E1FEEF68BFF35B8F07
:102EE00007F1400353E8002F22F0010143E80010EE
:102EF0000028F7D1BFF35B8FD20712D5EF68B8690E
:102F00004FF4B82106F000FB7B683021DB682A22F1
:102F100028469847011ED8DA1848224605F0ADFD2C
:102F2000D3E7BFF35B8F53E8002F22F0100143E893
:102F300000100028F7D1BFF35B8FD306C5D502235D
:102F4000ADF80430B7F84430ADF806307B68312175
:102F50009B680DF1030228469847011E02DA2246BB
:102F60004046DBE7FB6B002BAFD001A92846984712
:102F7000ABE700BFDCC00000E4C000009FCD000054
:102F8000BDCD000003292DE97F43C66805461446E0
:102F90003ED173680DF10F029B68232198470028EA
:102FA00033DB9DF80F2025480223C2F3011203FAF8
:102FB00002F2D4E90031224C00FB031382FB0489A6
:102FC000013B0021984579EB01011CDB1D48802164
:102FD000B1FBF2F15943B1FBF4F11B4C8DF80F102A
:102FE000241AE408A40144F00304C9B21748ADF858
:102FF000004005F06FFD73689DF80F20DB683221FB
:103000002846984701E06FF0150004B0BDE87083D2
:1030100011687F290ED80B4A0B4B0D489B1ADB0811
:103020009B0143F0030205F028FD73682278DB68FA
:103030003321E5E76FF02200E7E700BF40420F00D1
:103040003AA39500DCC00000E4C00000DDCD000024
:10305000FECD00002DE9F041C6688AB007464E4813
:103060004E4D04F003F84E4BB061ED1AED08AD0182
:1030700058B949494B4845F0010205F0FEFC6FF094
:10308000150420460AB0BDE8F0814FF0FF32002160
:1030900006F2BC4008F07AFE00220023CDE90623A8
:1030A00000236FF00502CDE90323CDE9013300973A
:1030B0003D4B4FF4806206F1480106F5896004F04B
:1030C0003DFEB069D0F80C808368384A1B681C212B
:1030D0009847041E19D1D8F8003023F08053C8F85F
:1030E0000030334BB06973624FF08053B362836832
:1030F000DB6906F1200183B101229847041E0FDA33
:103100002C4845F00102214604E0EADA2A4845F05D
:1031100001021C2105F0B1FCB3E76FF02204EFE7D8
:10312000264845F003021C2105F0A7FC7368002225
:10313000DB68302138469847041E04DA204845F001
:1031400001022146E6E70222002109A806F0F7FB6A
:10315000736809AA5C68322102233846A047041E1E
:1031600004DA184845F001022146D3E773681C6968
:1031700040231A4622213846A04773680822DB689C
:10318000242138469847041EBFF67BAF0E4845F011
:1031900001022146BEE700BFD7C50000E4C0000021
:1031A000DCC000000CCE0000B12E000000010400C5
:1031B0002F95000048CE00002CCE00006ECE0000FF
:1031C0007DCE0000A7CE0000CBCE00000B88012BE7
:1031D0002DE9F7430546174639D1B1F80290B9F108
:1031E000030F40F08280C668B0694FF4005106F1C9
:1031F000400806F089F9BFF35B8F58E8003F23F0E1
:10320000100348E80032002AF7D1BFF35B8F7368E0
:1032100010221C69222100232846A047B7630446D8
:1032200037B3002824DBA6F84490BFF35B8F58E83F
:10323000003F43F0010348E80032002AF7D1BFF312
:103240005B8F06F2BC4004F009FD002410E0022B65
:103250004BD1C668FFF7FEFE041E0DDA2449254B4C
:103260002548C91AC908890141F0010105F0F8FB98
:10327000204603B0BDE8F083EB6898694FF4B821AD
:1032800006F1400806F040F9BFF35B8F58E8003FB5
:1032900023F0100348E80032002AF7D1BFF35B8F18
:1032A000736810221C69222100232846A0477368F6
:1032B0000022DB6830212846984773680DF1070229
:1032C0009B68312128469847F7630446002FCFD0EA
:1032D0000028CDDBBFF35B8F58E8003F43F00103CC
:1032E00048E80032002AAAD0F6E76FF02204BFE7D0
:1032F000E4C00000DCC00000F3CE000010B5114CAB
:10330000114AA2610323C4E90433104BE36122662E
:103310004FF480630E4A0F49236262660023102235
:10332000E01DA3626362E3622367E3666367A266EC
:1033300006F09AFA0849204606F096FA2023A3716F
:1033400010BD00BF301D002014CF00002C3C002019
:103350001C3C00201DCF000021CF00002DE9F84FBC
:10336000234F4FF0180B14460BFB00720646936A6E
:10337000556AAB42884634D8D2F820A0AAEB05099A
:1033800009F1FF32944211D84FF0180906FB099356
:103390003B44224658684146284406F0A5FA09FBFA
:1033A00006762C4474620120BDE8F88F13449C42D9
:1033B0001BD800FB0BBBBB444A46DBF804002C4483
:1033C000284406F091FAB4EB0A0406D0DBF80400B6
:1033D000224608EB090106F087FA182000FB067662
:1033E000E0E7013B5B1BA342CED20020DCE700BF3D
:1033F000301D0020F8B5184C182300FB033503FBE3
:1034000000402544C46A012C0F4616460FD0022CFA
:103410001AD0F4B9284606F09CF8864205D8324600
:103420003946284606F0A3F834462046F8BD28461B
:1034300006F08FF88642344628BF044622463946B5
:10344000284606F094F8F0E72846BDE8F84006F074
:10345000AAB80024E9E700BF301D0020034B182262
:1034600002FB00339A6A586A801A7047301D0020A8
:10347000F7B5284D286883685B6C03B198472868C6
:1034800083685B6BDBB19847C8B1234C234E286837
:1034900083689B699BB101220DF1070198470128C0
:1034A0000DD12368A3B933685BB91D491D4B1E4874
:1034B000C91AC908890141F0010105F0D1FA03B028
:1034C000F0BD71681A6832608B4200D1726023606F
:1034D00016499DF807700A88B2F5007F084606D2A3
:1034E0002368134402F1010CA1F800C01F720A2FD7
:1034F000CDD1236802880E495A6000221A604E68B6
:1035000026B9C1E9003302802260BFE733604B6017
:10351000F9E700BF00220020E01D0020D81D002098
:1035200014C10000DCC0000028CF000004240020EB
:10353000F8210020044B10B5044618688368E1B2F6
:103540005B689847204610BD00220020F8B506466B
:103550000B4615464FF02002EFF3118C82F31188D1
:10356000BFF36F8F194C216849B1194A50688842DE
:1035700005D000200860506898B9C2E90011154ACA
:10358000116829B1576808681060B94208BF5060D7
:103590008CF31188BFF36F8F216029B90020286058
:1035A000F8BD01605160EAE748680831F6D05C1E5A
:1035B0008442A8BF04462246304606F095F900230F
:1035C000335501232B60E018EAE700BFE41D00201B
:1035D000D81D0020F82100201E4B002213B5C3E99E
:1035E00000221D4B1D49C3F8082203F502720B602F
:1035F0001A604A601A481B4C03F038FD02462060EE
:1036000020B383681BB19B6C0BB1174998472068A6
:1036100083685B6B53B1984740B1206883689B69AE
:1036200023B101220DF107019847F5E70F4A206801
:10363000002313808268926A1C4602B1904784F38B
:103640001188BFF36F8F002002B010BD4FF0FF3024
:10365000FAE700BFF8210020E81D0020D81D002057
:1036600052CF00000022002071340000042400200A
:1036700038B54368044698188028154608D8064887
:10368000184406F031F962682A446260002038BDAF
:103690004FF00040FBE700BF2C4000202DE9F04137
:1036A000D2B040F60613ADF80C30DFF82481414B60
:1036B000D8F800005C68818803783F4F3F4EC4F320
:1036C000072242EA0422428001330A02037042EADE
:1036D00011220023437082800821009341F22102CD
:1036E00005F057F801220346ADF81000009221467C
:1036F00041F22102384605F04CF8336840BAADF883
:1037000010005B6803A80221984704F10A035BBA22
:103710000DF11201022206A80225ADF8123006F0C2
:10372000E3F8D8F80010ADF8125008220DF11A0095
:1037300006F0DAF8BDF81200083006AB80B2ADF83A
:10374000120022463946184406F0CEF8BDF81200A1
:10375000204406AB80B2ADF812002A4604A91844F2
:1037600006F0C2F8BDF812302B449BB205AAADF8A2
:1037700012300093AD2106AB26A8FEF735F8059967
:103780003368ADF8121026A85B6889B29847336891
:103790000B485B68294698470A4B0B490B48C91AE6
:1037A000C908890141F0030105F05AF952B0BDE89A
:1037B000F08100BF100000202C40002004220020D7
:1037C00068CF0000DCC00000F4C000006BCF000038
:1037D0000822002038B50C4C0C4D4FF0FF3221462A
:1037E000284608F092F90A49204605F03CFF0023DC
:1037F0000022204608F067F92146284608F094F98F
:10380000BDE83840FFF74ABF1C2200200C220020F0
:103810006ECF00002DE9FF410C681B4F1B4B023897
:103820000D46C4F50071009003AA38190131FEF766
:103830005DF8044628BB2B68039A1344022B2B60C7
:103840001BD939880E0246EA1126B6B2023B9E42C7
:1038500013D14FF001080346CDF8008041F2210258
:103860003146B81C04F095FF38B9022E05D92B68F3
:10387000023B1F442B60BC704446204604B0BDE8A8
:10388000F0814FF0FF34F8E7AC400020AF42002059
:103890002DE9F04F0729B3B0044660D9027812F041
:1038A000FD055CD14288130243EA1223A1F1080608
:1038B0009BB2B34253D38288AC4BAD49186013021C
:1038C00043EA122383802A46AA484D6008F0EEF8A6
:1038D000A388012B40F0BD81E3792BB1012B00F0CF
:1038E0009D80FFF777FF3AE04FF0FF32A249A148F1
:1038F000A24DDFF8B082DFF8B09208F006F9A049D7
:103900009D4805F0B0FE9C484FF0FF3208A908F032
:10391000F9F8002600273146002004F045FC07A9ED
:10392000C0B2FEF7BDFF044658B92023014610AAD5
:10393000079805F008FC109BAB4216D0079805F0DD
:1039400001FC002F08BF012E0CD108A98A4808F0FD
:10395000EBF88949874808F0E7F8FFF79FFE33B096
:10396000BDE8F08F01260027D5E740230DF1600A5E
:103970000193CDE90344079B0294CDF800A010AA5F
:1039800021462046FDF71CFD0028D7D1079805F0F9
:10399000D9FB4FF0FF320CA908A808F0B6F8414651
:1039A0000CA805F060FE32463B460CA808F08BF8E8
:1039B00049460CA805F057FE9DF85410504605F0F6
:1039C00030FE32AB441C18444FF02E0B9DF85510BE
:1039D00000F868BC0AEB040005F023FE32AB20447B
:1039E000441C1844BDF8561000F868BC0AEB0400EB
:1039F00005F017FE32AB044423440134169903F852
:103A000068BC0AEB040005F00CFE51460CA805F05A
:103A10002AFE0CA908A808F087F892E718AA3146F0
:103A200004F108000C9500F00FFA78BB0324554B05
:103A3000554A5648D21AD208920142F00302214652
:103A400005F01BF84FF0FF324B494A4808F05DF88B
:103A50004F49494805F007FE47482246E31708F05A
:103A600032F84CB94B49444805F0FDFD4A4B4248F9
:103A70001A68234608F01FF83F493E4808F054F8FA
:103A8000FFF70CFE0C9805F05DFB68E74FF0FF3A7E
:103A90004FF0000B319C18AB2A462846D046D94639
:103AA0002F46A24227D1B9F1000F08BFB8F1FF3F5E
:103AB000BCD0002FBAD0002104F076FB0CA9C0B214
:103AC000FEF7EEFE0028B1D158EA0903324E0AD1C2
:103AD0000C9B30609A680023524573EB0B03A5DB07
:103AE0002E4BC3F800A033680021494508BF434569
:103AF00019D000249BE7197C032904D8DFE801F0E2
:103B00000206090E986801321433CAE7D3E9027538
:103B1000F9E799688A464FEAE17BF4E799688846B5
:103B20004FEAE179EFE71D4A11682B448B42914639
:103B300007D20C9805F073FBB5FBF0F303FB1050B4
:103B40002D1A306810A92844FCF752FE0E4B0D4A7E
:103B5000A3EB02084FEAD80804464FEA881828B3B6
:103B60000F4848F0010104F07BFF60E708220020C5
:103B7000100000200C2200201C2200203DB8F396EB
:103B800071CF0000DCC00000F4C0000032D00000A3
:103B90006ECF00003BD000002C22002030220020FD
:103BA00080CF000060C6000078CF0000334B109932
:103BB0001A6891429B4613D03148196048F00302BD
:103BC00004F05BFFDDE910120C9805F002FB0446DF
:103BD00030B12C4848F00102214604F04EFF26E7A0
:103BE0003168294848F0030A6A18534604F059FF1F
:103BF00031680C982B463A4605F0C2FA00287FF44B
:103C000015AF33681D44D9F8003035609D427FF40C
:103C100070AF0C9804F0D1FC10A9FCF7E9FD044644
:103C200018B11A4848F001019DE71099DBF80030FF
:103C300099427FF75EAF1248524604F01EFFDDE95D
:103C400010120C9805F0C5FA044600283FF4EFAEB8
:103C5000BFE7002B7FF483AEE379012B3FF441AE45
:103C6000052B7FF47CAEFFF7B5FD00214FF400502B
:103C700003F0CEFF0120FEF74FFE70E61800002093
:103C8000A6CF0000C4CF0000E2CF0000FDCF0000AF
:103C90002DE9F3411C4B1D4E1D4F186004464FF09B
:103CA00000083546C8F50071236801AA013106EB0A
:103CB000080098470028019B01DC002BF2D08044CB
:103CC00033B940F201239845ECD14FF00008E9E701
:103CD0002B78062B0AD16B78092B0CD1002300938B
:103CE0006946A8F10200FFF795FD04E0042B02D11C
:103CF0006B78142BF4D00128E7D1009938460239AB
:103D0000FFF7C6FDE1E700BF04220020AD4200201E
:103D1000AE4000202DE9F041076805460C4617B972
:103D20000020BDE8F08100231A46D0F8088005F095
:103D300039FD88B1D4E900123E4805F0C5FD0646BC
:103D400050B90346024604F10801284605F0F0FC8C
:103D500010B126740120E4E700232F60C5F8088025
:103D60001A462146284605F01DFD80B1D4E900120F
:103D7000314805F0A9FD034648B9024604F108019F
:103D8000284605F00FFD10B101202074C9E700237B
:103D90002F60C5F808801A462146284605F002FD26
:103DA00080B1D4E90012254805F08EFD034648B9DC
:103DB000024604F10801284605F0BAFC10B10223BE
:103DC0002374C7E700232F60C5F808801A462146F0
:103DD000284605F0E7FC78B1D4E90012184805F050
:103DE00073FD034640B9024604F10801284605F078
:103DF0009FFC08B10323E3E700232F60C5F8088088
:103E00001A462146284605F0CDFC002888D0D4E982
:103E100000120C4805F058FD0346002880D10246E8
:103E200004F10801284605F0BDFC00283FF478AFF6
:103E30000423C5E715C6000085CC00003FD0000074
:103E40003BD0000043D0000070B58CB00125099034
:103E500009AE08440A900523144607A92A463046AD
:103E60000B9505F0AAFC002360B11422CDE90332C2
:103E7000CDE901430096054B04F164020521284673
:103E800005F0B9FC00F001000CB070BD153D00005C
:103E9000094A0A499368096819670949D8664B684D
:103EA00043F080534B60002383F31188BFF36F8F7F
:103EB0009368186F704700BFC823002060C50000DA
:103EC00000ED00E00F498A684FF030001044EFF336
:103ED000098C80E8F01F202080F31188BFF36F8FDA
:103EE000094F4FF000660A6A8A603E60D06E002378
:103EF000D36680F3118802F1300090E8F01F8CF354
:103F000009887047C823002004ED00E01EF0040F6C
:103F10000CBFEFF30880EFF30980816911F8021CF0
:103F20000229FFD001B505F094FC01BD43B2002B7E
:103F300008DB012200F01F0002FA00F05B09024AD0
:103F400042F82300704700BF00E100E043B2002BBD
:103F5000A8BF03F1604301F10101B8BF064B4FEA6E
:103F60004111ACBF03F5614300F00F00C9B2B4BF0B
:103F7000195483F80013704714ED00E0C0E91812DB
:103F80000A44203A22F0070208491360009B53605C
:103F9000019B9360029BD3604FF08073D36121F04B
:103FA0000101002391610265C366704767880000C4
:103FB000F8B506460C4617461D4600F001FB094BB6
:103FC0003C4424F007049E60284684F309880021BD
:103FD00063B681F31188BFF36F8F0022002304F0D2
:103FE00042FC00BFC8230020014910220A6070472C
:103FF00010ED00E072B6404080F31188BFF36F8F80
:10400000BFF34F8F30BF62B6BFF36F8F704700BFF3
:1040100073B506460C4601B3134B144D1448ED1A04
:10402000ED08AD0145F00105ADF80050D1E90123DF
:10403000096804F04FFDADF80050D4E90423E168AD
:104040000C4804F047FDE1690B482A4604F015FDD1
:10405000A1690A482A4604F010FD2146304602B004
:10406000BDE8704003F03EB8DCC0000004C10000B1
:1040700047D0000076D00000A5D00000B4D00000EA
:1040800030BFFFF7FDBF00BF0E4A08B50E4B22F050
:104090007F029A60BFF34F8FBFF36F8FD3F88820F2
:1040A00022F47002C3F88820EFF3148323F0040392
:1040B00083F3148803F078F803F080F800F04EFAE8
:1040C00003F0BAF80000000000ED00E001B5EFF3E6
:1040D0000580A0F110004FEAC0000449014409C95D
:1040E0009847BDE801400249084700005CBF000056
:1040F0004145000005F049FC202080F31188084864
:104100004FF40061401880F30988EFF31480022116
:10411000084380F31488BFF36F8FFFF7B5FF0000EB
:1041200018710020EFF30880EFF30981724601B5A2
:1041300000F032F901BD00BF70B5234B234C244D74
:104140002448E41AE408A40144F00106314604F0CE
:1041500087FCAA6A930103D51F48314604F080FC0E
:10416000AB6ADD0104D51D4844F0010104F078FC80
:10417000174DAA6A100304D5194844F0010104F050
:104180006FFCAB6A590304D5164844F0010104F0F2
:1041900067FC0F4DAA6A920304D5134844F001014D
:1041A00004F05EFCAB6ADB0304D5104844F0010167
:1041B00004F056FC064A936A6FEA03436FEA13431E
:1041C0009362002070BD00BFDCC0000004C100008D
:1041D00000ED00E0E2D00000FAD000000DD10000B8
:1041E00027D1000045D100006AD1000084D1000031
:1041F0002DE9F041274B284C284DE41AE408A4018E
:1042000044F0010807460E462548414604F028FCC4
:10421000AA6AD10603D52348414604F021FCAB6AC3
:104220001A0704D5204844F0010104F019FC1B4D85
:10423000AB6A9B0712D544F001081C48414604F0C4
:104240000FFC696BAB6A180608D51948424604F0A2
:1042500014FC1FB1AB6A23F08003AB620F4DAA6A56
:10426000D20704D5134844F0010104F0F9FBAB6A0E
:104270009B0604D5104844F0010104F0F1FB074B04
:104280009A6A9A6A002042F0FF029A623070BDE892
:10429000F08100BFDCC0000004C1000000ED00E0C0
:1042A000AFD10000C5D10000F8D100000BD2000052
:1042B00023D2000039D2000058D200002DE9F0418D
:1042C0002A4B2B4C2B4DE41AE408A40144F00108BE
:1042D00007460E462848414604F0C2FBAA6AD104AC
:1042E00003D52648414604F0BBFBAB6A1A0504D54A
:1042F000234844F0010104F0B3FB1E4DAB6A9B055B
:1043000012D544F001081F48414604F0A9FBA96BEF
:10431000AB6A180408D51C48424604F0AEFB1FB136
:10432000AB6A23F40043AB62124DAB6A590504D566
:10433000164844F0010104F093FBAB6ADA050DD591
:10434000134844F0010104F08BFB0A4A936A0020F1
:1043500043F47F4393623070BDE8F081AB6A9B0405
:10436000F3D50C4844F00101EDE700BFDCC00000CC
:1043700004C1000000ED00E087D200009DD20000E3
:10438000F8D10000AED20000C7D20000DCD200009D
:10439000F7D2000058D200002DE9F041564B5E687C
:1043A0008AB00F46C6F30804002585F31188BFF3D1
:1043B0006F8F02F07F43B3F17F4F0DD102F00C03FA
:1043C000082B0BD14D494E4B4E48C91AC9088901DB
:1043D00041F0010104F044FB2F4603E0120701D431
:1043E0000746012500238DF80730E31E092B6AD804
:1043F000DFE803F005585C3C696969696960404B16
:104400003E4E4148F61AF608B60146F0010631461E
:1044100004F026FB384BDC6A4FF0000814F002046D
:104420008DF8078005D03948314604F019FB002487
:104430001FE0DB6A5B001CD53548314604F010FBF9
:10444000344B1B782BB10DF107010120FFF7D0FE93
:104450000EE0314B1B782BB10DF107010120FFF766
:104460002DFF05E02D4B1B889BB213B1FFF764FEB7
:1044700004469DF8073093B92022394602A805F07A
:1044800033FA099B9DB3C3F3080222B96FEA5323A1
:104490006FEA4323099302A92046FFF7B9FD0AB04A
:1044A000BDE8F0810DF107010020CFE70DF1070114
:1044B0000020D4E71149124B1948C91AC9088901CB
:1044C00041F00101B1E70E4A0C4B164816499B1A00
:1044D000DB0816F4F87F4FEA831318BF014643F058
:1044E00001031248A4F1100204F0DBFA9FE723F461
:1044F000FF7323F00103CDE700ED00E004C10000ED
:10450000DCC000000FD300003AD3000051D30000FC
:1045100072D3000028ED00E029ED00E02AED00E074
:1045200091D30000DCD30000C7D30000F5D3000016
:10453000024A536943F010035361704700ED00E0F5
:10454000044B9968186A884203D003494FF080529F
:104550000A607047C823002004ED00E004480023EF
:104560002021C2180133302B82F80013F9D1704793
:1045700000E100E038B504464FF02003EFF3118569
:1045800083F31188BFF36F8F03F0C6F90A4B9B6862
:10459000A3420BD1094B5A68C2F3080212B928464C
:1045A000FFF776FC5A6842F080525A602846BDE810
:1045B000384007F028BB00BFC823002000ED00E012
:1045C0001FB5084B0193084B0293084B039301ABB3
:1045D0000093074A074B0121684600F0AFF805B089
:1045E0005DF804FB000000200000000000000B0646
:1045F0000000002000000420DFF8BCC0F8B506462B
:104600000F4610460021B9421BDA56F821E0DEF8C9
:104610000440002C46D0ABB1651E2C4205D11F2CA6
:1046200003D9DEF8002015420CD01F4A1F4B20484A
:10463000D21AD208920142F0010204F01EFA6FF081
:104640001500F8BD202CC5B2DEF80020DEF8080009
:1046500016D9B4F1004F15D8013CB4FA84F4C4F172
:104660001F046400072D44EA00040DD90E4A0F4BC5
:104670001048D21AD208920142F001022946DCE722
:104680000824EFE73E24EDE722F01F022A4342F020
:10469000100244F00104CCF80850681CCCF80C203F
:1046A000CCF810400131AEE7FCC00000DCC00000D7
:1046B0000CD400002FD4000090ED00E0034B052245
:1046C0005A60BFF34F8FBFF36F8F704790ED00E0DC
:1046D000BFF35F8F014B00225A60704790ED00E0FE
:1046E00013490868082810B51ED8FFF7F1FF114CD0
:1046F00049680022904201F10C0105D10E4B18705F
:10470000FFF7DCFF002010BDA26051F80C3C23F045
:104710001F03134343F01003E36051F8043C43F0DC
:10472000010323610132E5E74FF0FF30EBE700BF03
:10473000E8C2000090ED00E0AE44002010B5034C4C
:1047400001232278FFF758FF207010BDAE440020EF
:10475000014B1860704700BF1C0000204FF0200381
:10476000EFF3118283F31188BFF36F8F06490123A2
:10477000C1F840354FF08041C1F8783582F3118897
:10478000BFF36F8F0020704700E001404FF080437F
:10479000C0B2C3F81C05BFF34F8F0549054BCA686B
:1047A00002F4E0621343CB60BFF34F8F00BFFDE71D
:1047B00000ED00E00400FA0520B1034B800143F056
:1047C00001031847704700BF50C1000008B5094BEE
:1047D0001A786AB90121197006200521FFF7B6FB86
:1047E0000620FFF7A3FB044B4FF00042C3F804235D
:1047F000002008BDAF440020006000402D4BF0B504
:1048000046682D481340834245D00DD8062B15D05D
:1048100005D89BB1022B40D06FF015003AE0B3F5FC
:10482000801FF9D1012309E02448834237D0B3F532
:10483000A00F36D0B3F5800FEED10223D00654BFBF
:10484000C2F34015032582F480749705C2F340201B
:10485000C4F3002407D512F4006F776823D0012237
:104860008A40C7F80825327A01F01F0141EA421157
:104870001F2940EA4402C6BF01F01F01104E4FF04D
:10488000A04642EA032301F5E07143EA850346F8B6
:1048900021300020F0BD0723D0E70423CEE7052315
:1048A000CCE70323CAE7520542BF01228A40C7F87A
:1048B0000C25D8E70600F0000600100002004000BA
:1048C000000300501F288ABF074B4FF0A04300F0A1
:1048D0001F0003EB8000D0F8003723F4403343EA95
:1048E0000141C0F80017704700030050F7B5436856
:1048F000C668187A01F01F040D464949D1F804230F
:1049000044EA4014D2B2002303F5A27051F820000B
:10491000C0F3052084426DD122FA03F0C00769D5A7
:104920009A0002F1804202F5C042D2F8100520F050
:104930000100C2F81005012202FA03F3C1F808339E
:1049400020460021FFF7BEFFF368EB4013F00100A3
:104950004ED03369EB4013F0010049D0B369EB400E
:1049600013F0010250D0F3692D4FEB40DB075FBF1E
:10497000716921FA05F505F00105C5F1020554BF7D
:10498000EDB20325002606F5A27357F8230010F0B8
:10499000030033D1B20002F1804202F5C04224028A
:1049A000D2F8101521F44F3121F44071C2F81015DE
:1049B000D2F8101504F47C5444EA05450D4306F181
:1049C0004001890089B201F1804101F5C041C2F87E
:1049D00010550860096801910199D2F8101541F04D
:1049E0000101C2F81015012202FA06F6C7F80463A5
:1049F00003B0F0BD0133082B86D1A1E70136082EA4
:104A0000C1D16FF01200F3E77169E94001F00101D3
:104A1000C1F103012046C9B2FFF754FF1046E7E792
:104A200000600040B2F5A03F70B4C46816D145687C
:104A30002E7A01F01F0545EA46151F2DC6BF05F069
:104A40001F051E4E4FF0A04605F5E07556F825509F
:104A5000ED0707D56FF0220070BC7047B2F5005F1C
:104A6000E56826D0E66801258D4035432669E56076
:104A700001258D40B2F5005F14BF2E43AE43266181
:104A8000A669B2F5A03FE2690CBF2E43AE43B3F571
:104A9000C02F0CBF2A43AA43E2616269A661B3F545
:104AA000802F0CBF154322EA0505656170BCFFF736
:104AB0001DBF01268E4025EA0605D7E700030050FA
:104AC000F0B5002685B0CDE90266284D2C685CB1B2
:104AD000274804F0C9FF0290264804F0C5FF039060
:104AE0002E602B680093009B234D002201269446E4
:104AF000D5F8043306FA02F119421DD0910001F1F4
:104B0000804101F5C2410B68B3B102F5A27304AF55
:104B100055F82330C1F800C0C3F3403007EB8000E4
:104B2000C3F3042350F8087C06FA03F33B4340F830
:104B3000083C0B680193019B0132082AD8D10299E5
:104B400011B10B4804F075FF039911B1094804F045
:104B500070FF44B1064804F0B9FF064805B0BDE84F
:104B6000F04004F0B3BF05B0F0BD00BF7C61004071
:104B70001C0100202C0100200060004010B50446FC
:104B8000002201212320FFF7E1F960680D4A234646
:104B900000F1080101F0EEFA0B4B98420DD00B4BDF
:104BA0000B4A0C482168D21AD208920142F0010245
:104BB00003F063FF6FF00F0010BDE06804F0EFFF3B
:104BC0000020F9E7BD4E00000000AD0BDCC0000086
:104BD00024C100006FD4000030B5C568EA6B6B6C6F
:104BE00085B082B973BB1C4600221146284604F0EA
:104BF000ACFF6C6205F1140003F030F8002385F877
:104C00004C3005B030BD114613B19A4228BF194649
:104C1000AC6BA9640094BCB1002A18BF0A4601928B
:104C20002A6C029292B1002B18BF0B464068039386
:104C30000022694601F04AFB054B9842E1D06FF033
:104C40000404D1E71946E3E72246E8E71346EDE717
:104C50000000AD0B2DE9F74FC46880460F4616469D
:104C60001D4604F1040A4FF0FF334FF0FF32504667
:104C700003F014F8D8F80C90D9F800309F4200F0F7
:104C8000A680BB88D90714D57D4A7E4BD8F8001082
:104C90007D48D21AD208920142F0010203F0EDFEE3
:104CA0006FF01504504602F0D9FF204603B0BDE86E
:104CB000F08F1A070AD57249724B7448C91AC9088D
:104CC000890141F0010103F0CBFEE9E713F4C05F75
:104CD00008D06B496B4B6E48C91AC908890141F06D
:104CE0000101F0E7C3F34513082B08D06449654B75
:104CF0006848C91AC908890141F00101E3E73A6827
:104D0000654B9A4208D85E495E4B6448C91AC90887
:104D1000890141F00101D6E7D8F804300093BB685F
:104D2000C9F80070002B7CD01868002879D0596829
:104D3000D0F80CB08368C9B21B6801914FF40072BF
:104D4000984748B90199012303FA01F1DBF80030D3
:104D500023EA0103CBF80030D9F800209368B2F9B8
:104D6000042019791868D243D20F04F0DEFE009BAC
:104D70001968BB88980703F004025DD5002A14BFA8
:104D800003220222022AC3F3001359D0032A5AD065
:104D9000012A01D143F00203414AC1F854353B686E
:104DA000934253D93F4A934253D93F4A934253D9EE
:104DB0003E4A934253D93E4A934253D93D4A934285
:104DC00034BF4FF080434FF00043C1F82435012336
:104DD00084F84C30002E48D033687268A362E262D7
:104DE0001A685B68A263E363002D43D02B686A688E
:104DF000236362631A685B682264636400226262F0
:104E00000121204604F0A1FE4046FFF7E5FE4FF0E9
:104E1000FF3204F114004FF0FF3302F03FFF646AE9
:104E200040E7184B16492448C91AC908890141F0BE
:104E3000030103F015FE9AE7003A18BF0122A1E72B
:104E400043F00403A8E743F00603A5E74FF000731F
:104E5000BBE74FF08063B8E74FF00063B5E74FF072
:104E60008053B2E74FF00053AFE7C4E90A66C4E9E4
:104E70000E66B9E7C4E90C55C4E91055BEE700BF9A
:104E800024C10000DCC000008FD40000B1D40000B9
:104E9000D0D40000F3D4000047E8010022D5000080
:104EA0008FD003001FA107003F420F007F841E0028
:104EB000FF083D0000127A0053D5000038B5037892
:104EC0000D46002B4FD1CC68E36B63B1A26C9A42C4
:104ED0001DD92549254B26485B1ADB089B0143F069
:104EE000010103F0BDFD636C63B1A26C9A4224D949
:104EF0001D491E4B1E485B1ADB089B0143F0010154
:104F000003F0AEFD2846BDE83840FFF765BE9B1AAA
:104F1000E36363B9E36A013BE36263B1A36A03F14C
:104F20000802A2629A68DB68A263E363DBE7A36B13
:104F3000002BD8D01344A363D5E79B1A636463B9ED
:104F4000636B013B636363B1236B03F1080222636C
:104F50009A68DB6822646364D4E7236C002BD1D0A9
:104F600013442364CEE738BDDCC0000024C1000038
:104F700079D50000024B0B6001231360704700BF1E
:104F80006CC30000054B994207D1C06810304FF048
:104F9000FF324FF0FF3302F081BE70470000AD0BCF
:104FA000C36893F820302DE9F74FD0F8049080467D
:104FB0009346002B40F08480D9F804308B420E4693
:104FC00006D9002904DB934202D38A1893420DD2FA
:104FD0003D4A3E4B3E489B1ADB089B0143F00103D0
:104FE0005A4603F05EFD6FF0150427E0BBF1000F99
:104FF000F9D004F0FDFD354F334BDFF8E4A0FF1A84
:10500000FF08BF0147F00107D9F804305B4519D10B
:1050100001F074F8002405465B462946404601939A
:10502000FFF7B0FF2B4A954232D1019B1E44ABEBF8
:10503000030B002C3DD0404604F0D1FD204603B0C8
:10504000BDE8F08FBBF5803F09D3B4B254B9314607
:10505000012001F043F84FF480330546DDE7BBF54E
:10506000805F0AD3C6F30B043CB93146204601F0F9
:1050700035F84FF480530546CFE73B465A46314654
:10508000504603F00EFD00231D466FF01504C4E7E3
:1050900005F1744510483B465A46314605F5A605CC
:1050A00003F0FFFC0A2D08D80C4B5C57002CABD04A
:1050B000C1E7BBF1000FA7D1BDE76FF00F04BAE75E
:1050C0006FF00C04BAE700BFDCC000000CC10000A8
:1050D000AAD500000000AD0B12D6000002D70000D8
:1050E000F4D500002DE9F74F06460D461F469046C1
:1050F00032B32BB311F0030A22D1032B23D9BB0700
:105100001ED1B9469346F268736892F82020002AAF
:105110006ED15B689D4207D2002D05DB4B4503D362
:1051200005EB0902934213D2344A354B35489B1A9A
:10513000DB089B0143F001034A46294603F0B1FC1A
:105140006FF015002EE04FF004090DEB090BDAE7C4
:10515000304604F04DFDC34511D02A46494601A80A
:1051600000F0A4FF044601463046FFF70BFF264B34
:105170009C420CD13A46414601A804F0B5FBB8F177
:10518000005F2AD2DFF8809057450ED81E4C04F1FC
:105190007444304604F5A60404F021FD0A2C2AD8F4
:1051A0001A4B185703B0BDE8F08F042208EB0A0130
:1051B0000DEB020004F098FB042105EB0A020DEB55
:1051C000010000F05BFF044601463046FFF7DAFEBF
:1051D0004C45DCD10AF1040AD6E749462A4658462E
:1051E00000F04CFF044601463046FFF7CBFECEE709
:1051F0006FF00C00D6E76FF00F00D3E7DCC00000C3
:105200000CC1000030D600000000AD0B02D700003A
:1052100037B50C46054604F0EBFC00238DF804304E
:10522000D4E9011223788DF8003001238DF8053080
:105230008DF8013040F20113ADF80230D9B10B798D
:105240000AB15068034401338DF8013012680968CF
:10525000684600F0D3FE0446284604F0C0FC04F182
:10526000744000F5A6000A289ABF054B18566FF047
:105270000F0003B030BD002AE8D05368E3E700BF59
:1052800002D7000070B500228CB00646012129200B
:10529000FEF75CFE404A414974680023CDE90632BE
:1052A00041F21672CDE9082306A84FF44073324646
:1052B000ADF8283000F026FE394B984205462AD139
:1052C0009DF82330023B012B04D99DF82230033B8B
:1052D000012B20D80023CDE90333059303A906232E
:1052E00030468DF80C30FFF793FF80B940238DF8DE
:1052F0000030012302938DF80C3001ABCDE904306E
:1053000003A93046CDF804D0FFF782FF18B16FF043
:1053100004000CB070BD05F1744303F5A6030A2B1D
:1053200002D96FF00F00F4E71E4AD0560028F0D1E2
:105330009F2303258DF80C30049001AB03A9304660
:10534000CDF804D002950593FFF762FF08BB2A460B
:105350006946204604F0B8FA0028DAD0124A134B06
:1053600013489B1A2278069262780792A2780892D4
:105370009DF800200992EB409DF801200A929B01C4
:105380009DF802200B9243F00103062206A903F0C8
:10539000BDFB6FF01200BCE713111415E59B000074
:1053A0000000AD0B02D70000DCC000000CC1000003
:1053B0007AD600002DE9F74381460C461D46164675
:1053C000FAB1F3B1013B022B1ED9AB0719D12F461D
:1053D0009046D9F804305B68A34206D9002C04DB60
:1053E000BB4202D3E219934212D21D4A1D4B1E4802
:1053F0009B1ADB089B0143F001033A46214603F068
:1054000050FB6FF0150423E004270DEB0708E0E7DD
:10541000484604F0EDFB22463946404600F046FE81
:10542000014604464846FFF7ADFD484604F0D7FB69
:1054300004F1744000F5A6000A280DD80B4B1C5649
:1054400034B9B04504D02A464146304604F04CFAFF
:10545000204603B0BDE8F0836FF00F04F8E700BF0B
:10546000DCC000000CC10000B0D6000002D7000074
:10547000024B0B6001231360704700BF74220020B1
:1054800070B50D46144604F0FEFD2146064628463A
:1054900004F0CFFB00B3B5FBF6F306FB1353DBB907
:1054A000B4FBF6F306FB1340B0B9A64213D84FF095
:1054B000FF324FF0FF330A4802F0F0FB04F0E3FD47
:1054C0000646284600F05EFCA41B3544F9D104488A
:1054D00002F0C4FB204670BD6FF01500FBE700BF73
:1054E0007C22002010B5012211460648064C06F029
:1054F0004DFC04F0CCFD206004F0C5FD6060002090
:1055000010BD00BF7C22002074220020F8B50E469A
:105510003046194617461C4604F08BFB08B346EA92
:10552000040515F003051CD1F4B110484FF0FF320B
:105530004FF0FF3302F0B2FB24F00304A54206EB68
:10554000050009D10A4AD2F80034DB07FBD5074829
:1055500002F084FB0020F8BD795900F033FC0435DB
:10556000ECE76FF01500F6E72046F4E77C22002018
:1055700000E00140054B1B682BB9054B187800383B
:1055800018BF012070470120704700BF1C21004058
:10559000B0440020024BD3F88004C3F88004704765
:1055A00000200040024B0422C3F80423704700BFD0
:1055B00000200040024B0422C3F80823704700BFBC
:1055C00000200040024B1868003818BF01207047C7
:1055D00008210040024B4FF40072C3F804237047C7
:1055E00000200040024B4FF40072C3F808237047BC
:1055F00000200040024B1960024B1A60704700BF48
:105600008C22002090220020034B8022C3F8082324
:105610000122DA6006F09EBA0020004008B506F0CC
:1056200098FA0D4B01221A608022C3F8FC224FF039
:105630002002EFF3118382F31188BFF36F8F074AC3
:1056400012781AB1064A0421C2F8001183F31188B6
:10565000BFF36F8F08BD00BF08200040B04400209A
:1056600000E100E008B50C4BD3F8042312F0800FE2
:105670001A4605D1D2F8040310F0040006D108BD83
:10568000FFF778FF0028F5D00120F8E7034B1868F2
:10569000003818BF0120F2E7002000400821004038
:1056A00070B54B79012B27D0032B22D110268B7993
:1056B000032B1ED1CC7924B1012C1AD143681B785D
:1056C000BBB10A7912B1022A13D10E220B68B3F5CD
:1056D000164F62D02DD8B3F5165F60D016D8B3F54B
:1056E000966F5ED00AD8B3F5967F5DD0B3F5167F7E
:1056F0005DD06FF022004FE00026D8E7B3F5166FBB
:1057000058D0B3F5965FF4D1344B39E0B3F5E14F9F
:1057100053D007D8B3F5615F51D0B3F5964FE8D1B8
:105720002F4B2DE047F61225AB42E2D14FF4000398
:1057300026E0B3F5613F45D011D8B3F5963F43D08D
:1057400008D84DF6C025AB4240D0B3F5614FD0D15B
:10575000244B15E0B3F5E13FCBD1234B10E0B3F57B
:10576000612F36D007D8214DAB4234D0B3F5E12FAD
:10577000BFD11F4B04E01F4DAB42BAD14FF0805355
:105780001D4D34432243C5F82435C5F86C25C36844
:1057900003C983E80300002070BD184BF0E7184BE5
:1057A000EEE74FF49E23EBE74FF4A033E8E74FF426
:1057B0001C33E5E74FF41D23E2E7124BE0E74FF41B
:1057C0006C13DDE7104BDBE7104BD9E74FF46503B3
:1057D000D6E70F4BD4E74FF08063D1E700B013005A
:1057E00000A04E0000F0EB0000E0D70190D00300D5
:1057F00000705F0740420F000020004000509D00F5
:105800000050270000F0750000B0AF0300903A018F
:1058100000D0BE0E084B1A6882B022B100221A6076
:105820001B680193019B054B1B681BB1044A106860
:1058300002B0184702B07047242100408C2200209B
:1058400090220020F7B50023094C0A4F1E46D8B21B
:10585000151A002D02DD256801330DB903B0F0BD26
:10586000266025680195019DD7F818550D54EEE77F
:105870000821004000200040F7B50E4606F092FADD
:105880001C4DC0B964240127BFF35B8F55E8003F6E
:10589000002B03D145E80072002AF7D1BFF35B8FDC
:1058A0000BD021200021013C02F0B2F914F0FF04DA
:1058B000EAD103B0F0BD01232B600F4A002313602F
:1058C00012680192019A0D4A13700D4B01221A6061
:1058D0004FF47A74C3F81465FFF74CFE20B9012029
:1058E00004F0C9FB013CF7D1064B01221A600023EA
:1058F0002B60DEE7942200201C210040B0440020F1
:10590000082000400C200040084B1A6882B052B1B9
:10591000002018601B680193019B054BD3F81835D4
:105920000B7002B070474FF0FF30FAE708210040DB
:10593000002000402DE9F3410D4E0E4FDFF8388076
:105940000024E5B2531B002B03DDFFF713FE0134E7
:1059500018B9284602B0BDE8F081002333603068F2
:10596000019001983B704B5DC8F81C35E9E700BF1A
:105970001C210040B0440020002000404FF0A04314
:1059800037B51C4D4022C3F8082503210022082406
:10599000C3F81817C3F82027C5F814450624C5F81E
:1059A0000C452024C3F80845C3F81417C3F81C2776
:1059B0000523C5F808350723C168C5F81035FFF77A
:1059C0006FFE044690B90423C5F800350A4B1860F1
:1059D0001B680193019B094B0121296002460220AB
:1059E0001970FEF7B3FA0220FEF7A0FA204603B0C2
:1059F00030BD00BF0020004008210040B04400201E
:105A0000F0B54B79012B29D0032B24D110268B79AB
:105A1000032B20D1CC7924B1012C1CD143681B79F4
:105A2000CBB10A7912B1022A15D10E220B68456852
:105A3000B3F5164F2D6864D02DD8B3F5165F63D03B
:105A400016D8B3F5966F61D00AD8B3F5967F60D0BB
:105A5000B3F5167F60D06FF0220051E00026D6E744
:105A6000B3F5166F5BD0B3F5965FF4D1364B3CE0DF
:105A7000B3F5E14F56D007D8B3F5615F54D0B3F515
:105A8000964FE8D1314B30E047F61227BB42E2D1C6
:105A90004FF4000329E0B3F5613F47D013D8B3F5C5
:105AA000963F46D009D84DF6C027BB4243D0B3F548
:105AB000614FD0D14FF46B0317E0B3F5E13FCAD18A
:105AC0004FF0EB7311E0B3F5612F37D008D8204FBA
:105AD000BB4236D0B3F5E12FBDD14FF0E86304E00F
